{
  "_format": "hh-sol-artifact-1",
  "contractName": "FacultyValidator",
  "sourceName": "contracts/FacultyValidator.sol",
  "abi": [
    {
      "inputs": [],
      "stateMutability": "nonpayable",
      "type": "constructor"
    },
    {
      "inputs": [
        {
          "internalType": "address",
          "name": "owner",
          "type": "address"
        }
      ],
      "name": "OwnableInvalidOwner",
      "type": "error"
    },
    {
      "inputs": [
        {
          "internalType": "address",
          "name": "account",
          "type": "address"
        }
      ],
      "name": "OwnableUnauthorizedAccount",
      "type": "error"
    },
    {
      "anonymous": false,
      "inputs": [
        {
          "indexed": true,
          "internalType": "address",
          "name": "account",
          "type": "address"
        },
        {
          "indexed": false,
          "internalType": "string",
          "name": "name",
          "type": "string"
        },
        {
          "indexed": false,
          "internalType": "string",
          "name": "department",
          "type": "string"
        }
      ],
      "name": "FacultyAdded",
      "type": "event"
    },
    {
      "anonymous": false,
      "inputs": [
        {
          "indexed": true,
          "internalType": "address",
          "name": "account",
          "type": "address"
        }
      ],
      "name": "FacultyRemoved",
      "type": "event"
    },
    {
      "anonymous": false,
      "inputs": [
        {
          "indexed": true,
          "internalType": "address",
          "name": "account",
          "type": "address"
        },
        {
          "indexed": false,
          "internalType": "string",
          "name": "name",
          "type": "string"
        },
        {
          "indexed": false,
          "internalType": "string",
          "name": "department",
          "type": "string"
        }
      ],
      "name": "FacultyUpdated",
      "type": "event"
    },
    {
      "anonymous": false,
      "inputs": [
        {
          "indexed": true,
          "internalType": "address",
          "name": "previousOwner",
          "type": "address"
        },
        {
          "indexed": true,
          "internalType": "address",
          "name": "newOwner",
          "type": "address"
        }
      ],
      "name": "OwnershipTransferred",
      "type": "event"
    },
    {
      "inputs": [
        {
          "internalType": "address",
          "name": "_account",
          "type": "address"
        },
        {
          "internalType": "string",
          "name": "_name",
          "type": "string"
        },
        {
          "internalType": "string",
          "name": "_department",
          "type": "string"
        }
      ],
      "name": "addFaculty",
      "outputs": [],
      "stateMutability": "nonpayable",
      "type": "function"
    },
    {
      "inputs": [
        {
          "internalType": "address",
          "name": "",
          "type": "address"
        }
      ],
      "name": "faculties",
      "outputs": [
        {
          "internalType": "address",
          "name": "account",
          "type": "address"
        },
        {
          "internalType": "string",
          "name": "name",
          "type": "string"
        },
        {
          "internalType": "string",
          "name": "department",
          "type": "string"
        },
        {
          "internalType": "bool",
          "name": "active",
          "type": "bool"
        },
        {
          "internalType": "uint256",
          "name": "addedAt",
          "type": "uint256"
        }
      ],
      "stateMutability": "view",
      "type": "function"
    },
    {
      "inputs": [
        {
          "internalType": "uint256",
          "name": "",
          "type": "uint256"
        }
      ],
      "name": "facultyList",
      "outputs": [
        {
          "internalType": "address",
          "name": "",
          "type": "address"
        }
      ],
      "stateMutability": "view",
      "type": "function"
    },
    {
      "inputs": [],
      "name": "getActiveFaculty",
      "outputs": [
        {
          "internalType": "address[]",
          "name": "",
          "type": "address[]"
        }
      ],
      "stateMutability": "view",
      "type": "function"
    },
    {
      "inputs": [
        {
          "internalType": "address",
          "name": "_account",
          "type": "address"
        }
      ],
      "name": "getFaculty",
      "outputs": [
        {
          "internalType": "address",
          "name": "account",
          "type": "address"
        },
        {
          "internalType": "string",
          "name": "name",
          "type": "string"
        },
        {
          "internalType": "string",
          "name": "department",
          "type": "string"
        },
        {
          "internalType": "bool",
          "name": "active",
          "type": "bool"
        },
        {
          "internalType": "uint256",
          "name": "addedAt",
          "type": "uint256"
        }
      ],
      "stateMutability": "view",
      "type": "function"
    },
    {
      "inputs": [],
      "name": "getFacultyCount",
      "outputs": [
        {
          "internalType": "uint256",
          "name": "",
          "type": "uint256"
        }
      ],
      "stateMutability": "view",
      "type": "function"
    },
    {
      "inputs": [
        {
          "internalType": "address",
          "name": "_account",
          "type": "address"
        }
      ],
      "name": "isFaculty",
      "outputs": [
        {
          "internalType": "bool",
          "name": "",
          "type": "bool"
        }
      ],
      "stateMutability": "view",
      "type": "function"
    },
    {
      "inputs": [],
      "name": "owner",
      "outputs": [
        {
          "internalType": "address",
          "name": "",
          "type": "address"
        }
      ],
      "stateMutability": "view",
      "type": "function"
    },
    {
      "inputs": [
        {
          "internalType": "address",
          "name": "_account",
          "type": "address"
        }
      ],
      "name": "removeFaculty",
      "outputs": [],
      "stateMutability": "nonpayable",
      "type": "function"
    },
    {
      "inputs": [],
      "name": "renounceOwnership",
      "outputs": [],
      "stateMutability": "nonpayable",
      "type": "function"
    },
    {
      "inputs": [
        {
          "internalType": "address",
          "name": "newOwner",
          "type": "address"
        }
      ],
      "name": "transferOwnership",
      "outputs": [],
      "stateMutability": "nonpayable",
      "type": "function"
    },
    {
      "inputs": [
        {
          "internalType": "address",
          "name": "_account",
          "type": "address"
        },
        {
          "internalType": "string",
          "name": "_name",
          "type": "string"
        },
        {
          "internalType": "string",
          "name": "_department",
          "type": "string"
        }
      ],
      "name": "updateFaculty",
      "outputs": [],
      "stateMutability": "nonpayable",
      "type": "function"
    }
  ],
  "bytecode": "0x608060405234801561001057600080fd5b50338061003757604051631e4fbdf760e01b81526000600482015260240160405180910390fd5b61004081610046565b50610096565b600080546001600160a01b038381166001600160a01b0319831681178455604051919092169283917f8be0079c531659141344cd1fd0a4f28419497f9722a3daafe3b4186f6b6457e09190a35050565b610efd806100a56000396000f3fe608060405234801561001057600080fd5b50600436106100b45760003560e01c8063b5fdf25211610071578063b5fdf25214610137578063c2a787021461015b578063c37399dc1461019a578063defa4fc4146101ad578063e91ba1ec146101c2578063f2fde38b146101d557600080fd5b80631781498b146100b957806350ae42d4146100cf578063715018a6146100e45780638da5cb5b146100ec57806393a8653214610111578063a56afa3f14610124575b600080fd5b6002546040519081526020015b60405180910390f35b6100e26100dd366004610b86565b6101e8565b005b6100e26102e5565b6000546001600160a01b03165b6040516001600160a01b0390911681526020016100c6565b6100e261011f366004610bfa565b6102f9565b6100e2610132366004610b86565b6103ad565b61014a610145366004610bfa565b610588565b6040516100c6959493929190610c62565b61018a610169366004610bfa565b6001600160a01b031660009081526001602052604090206003015460ff1690565b60405190151581526020016100c6565b6100f96101a8366004610cad565b6106d6565b6101b5610700565b6040516100c69190610cc6565b61014a6101d0366004610bfa565b610898565b6100e26101e3366004610bfa565b610a0c565b6101f0610a4a565b6001600160a01b03838116600090815260016020526040902054166102505760405162461bcd60e51b8152602060048201526011602482015270119858dd5b1d1e481b9bdd08199bdd5b99607a1b60448201526064015b60405180910390fd5b6001600160a01b0383166000908152600160208190526040909120016102768382610d9c565b506001600160a01b038316600090815260016020526040902060020161029c8282610d9c565b50826001600160a01b03167fbd4defe9dbbb24e2ea037817c5679fb5fa31958ac7b105bf1dc55aa14e20e5c983836040516102d8929190610e5c565b60405180910390a2505050565b6102ed610a4a565b6102f76000610a77565b565b610301610a4a565b6001600160a01b03811660009081526001602052604090206003015460ff166103615760405162461bcd60e51b8152602060048201526012602482015271466163756c7479206e6f742061637469766560701b6044820152606401610247565b6001600160a01b038116600081815260016020526040808220600301805460ff19169055517f45a6b8711d9469bd375fc4e97410d69b759e2d838e4a1186b05ebe328413609a9190a250565b6103b5610a4a565b6001600160a01b0383166103fd5760405162461bcd60e51b815260206004820152600f60248201526e496e76616c6964206164647265737360881b6044820152606401610247565b6001600160a01b03831660009081526001602052604090206003015460ff16156104625760405162461bcd60e51b8152602060048201526016602482015275466163756c747920616c72656164792061637469766560501b6044820152606401610247565b6040805160a0810182526001600160a01b03858116808352602080840187815284860187905260016060860181905242608087015260009384529182905294909120835181546001600160a01b0319169316929092178255925191929091908201906104ce9082610d9c565b50604082015160028201906104e39082610d9c565b50606082015160038201805460ff1916911515919091179055608090910151600490910155600280546001810182556000919091527f405787fa12a823e0f2b7631cc41b3ba8828b3321ca811111fa75cd3aa3bb5ace0180546001600160a01b0319166001600160a01b0385169081179091556040517faa5bcffa104fcb93acf6be1be2404a3a49b38b1101ab541a78b579f1cdf2676f906102d89085908590610e5c565b6001602081905260009182526040909120805491810180546001600160a01b03909316926105b590610d13565b80601f01602080910402602001604051908101604052809291908181526020018280546105e190610d13565b801561062e5780601f106106035761010080835404028352916020019161062e565b820191906000526020600020905b81548152906001019060200180831161061157829003601f168201915b50505050509080600201805461064390610d13565b80601f016020809104026020016040519081016040528092919081815260200182805461066f90610d13565b80156106bc5780601f10610691576101008083540402835291602001916106bc565b820191906000526020600020905b81548152906001019060200180831161069f57829003601f168201915b505050506003830154600490930154919260ff1691905085565b600281815481106106e657600080fd5b6000918252602090912001546001600160a01b0316905081565b60606000805b60025481101561077757600160006002838154811061072757610727610e8a565b60009182526020808320909101546001600160a01b0316835282019290925260400190206003015460ff1615610765578161076181610ea0565b9250505b8061076f81610ea0565b915050610706565b5060008167ffffffffffffffff81111561079357610793610ae3565b6040519080825280602002602001820160405280156107bc578160200160208202803683370190505b5090506000805b60025481101561088f5760016000600283815481106107e4576107e4610e8a565b60009182526020808320909101546001600160a01b0316835282019290925260400190206003015460ff161561087d576002818154811061082757610827610e8a565b9060005260206000200160009054906101000a90046001600160a01b031683838151811061085757610857610e8a565b6001600160a01b03909216602092830291909101909101528161087981610ea0565b9250505b8061088781610ea0565b9150506107c3565b50909392505050565b6001600160a01b038082166000908152600160208190526040822080546003820154600483015493830180549596606096879689968796909593169392600286019260ff909116919084906108ec90610d13565b80601f016020809104026020016040519081016040528092919081815260200182805461091890610d13565b80156109655780601f1061093a57610100808354040283529160200191610965565b820191906000526020600020905b81548152906001019060200180831161094857829003601f168201915b5050505050935082805461097890610d13565b80601f01602080910402602001604051908101604052809291908181526020018280546109a490610d13565b80156109f15780601f106109c6576101008083540402835291602001916109f1565b820191906000526020600020905b8154815290600101906020018083116109d457829003601f168201915b50505050509250955095509550955095505091939590929450565b610a14610a4a565b6001600160a01b038116610a3e57604051631e4fbdf760e01b815260006004820152602401610247565b610a4781610a77565b50565b6000546001600160a01b031633146102f75760405163118cdaa760e01b8152336004820152602401610247565b600080546001600160a01b038381166001600160a01b0319831681178455604051919092169283917f8be0079c531659141344cd1fd0a4f28419497f9722a3daafe3b4186f6b6457e09190a35050565b80356001600160a01b0381168114610ade57600080fd5b919050565b634e487b7160e01b600052604160045260246000fd5b600082601f830112610b0a57600080fd5b813567ffffffffffffffff80821115610b2557610b25610ae3565b604051601f8301601f19908116603f01168101908282118183101715610b4d57610b4d610ae3565b81604052838152866020858801011115610b6657600080fd5b836020870160208301376000602085830101528094505050505092915050565b600080600060608486031215610b9b57600080fd5b610ba484610ac7565b9250602084013567ffffffffffffffff80821115610bc157600080fd5b610bcd87838801610af9565b93506040860135915080821115610be357600080fd5b50610bf086828701610af9565b9150509250925092565b600060208284031215610c0c57600080fd5b610c1582610ac7565b9392505050565b6000815180845260005b81811015610c4257602081850181015186830182015201610c26565b506000602082860101526020601f19601f83011685010191505092915050565b6001600160a01b038616815260a060208201819052600090610c8690830187610c1c565b8281036040840152610c988187610c1c565b94151560608401525050608001529392505050565b600060208284031215610cbf57600080fd5b5035919050565b6020808252825182820181905260009190848201906040850190845b81811015610d075783516001600160a01b031683529284019291840191600101610ce2565b50909695505050505050565b600181811c90821680610d2757607f821691505b602082108103610d4757634e487b7160e01b600052602260045260246000fd5b50919050565b601f821115610d9757600081815260208120601f850160051c81016020861015610d745750805b601f850160051c820191505b81811015610d9357828155600101610d80565b5050505b505050565b815167ffffffffffffffff811115610db657610db6610ae3565b610dca81610dc48454610d13565b84610d4d565b602080601f831160018114610dff5760008415610de75750858301515b600019600386901b1c1916600185901b178555610d93565b600085815260208120601f198616915b82811015610e2e57888601518255948401946001909101908401610e0f565b5085821015610e4c5787850151600019600388901b60f8161c191681555b5050505050600190811b01905550565b604081526000610e6f6040830185610c1c565b8281036020840152610e818185610c1c565b95945050505050565b634e487b7160e01b600052603260045260246000fd5b600060018201610ec057634e487b7160e01b600052601160045260246000fd5b506001019056fea26469706673582212202d13a431cbc79f2d126519b079581df1038f7b5f2865eb0f88c4d34a0bfb706364736f6c63430008140033",
  "linkReferences": {},
  "deployedLinkReferences": {}
}