{
  "_format": "hh-sol-artifact-1",
  "contractName": "StudentDID",
  "sourceName": "contracts/StudentDID.sol",
  "abi": [
    {
      "inputs": [],
      "stateMutability": "nonpayable",
      "type": "constructor"
    },
    {
      "inputs": [
        {
          "internalType": "address",
          "name": "owner",
          "type": "address"
        }
      ],
      "name": "OwnableInvalidOwner",
      "type": "error"
    },
    {
      "inputs": [
        {
          "internalType": "address",
          "name": "account",
          "type": "address"
        }
      ],
      "name": "OwnableUnauthorizedAccount",
      "type": "error"
    },
    {
      "anonymous": false,
      "inputs": [
        {
          "indexed": true,
          "internalType": "address",
          "name": "student",
          "type": "address"
        },
        {
          "indexed": false,
          "internalType": "string",
          "name": "did",
          "type": "string"
        },
        {
          "indexed": false,
          "internalType": "uint256",
          "name": "timestamp",
          "type": "uint256"
        }
      ],
      "name": "DIDDeactivated",
      "type": "event"
    },
    {
      "anonymous": false,
      "inputs": [
        {
          "indexed": true,
          "internalType": "address",
          "name": "student",
          "type": "address"
        },
        {
          "indexed": false,
          "internalType": "string",
          "name": "did",
          "type": "string"
        },
        {
          "indexed": false,
          "internalType": "uint256",
          "name": "timestamp",
          "type": "uint256"
        }
      ],
      "name": "DIDRegistered",
      "type": "event"
    },
    {
      "anonymous": false,
      "inputs": [
        {
          "indexed": true,
          "internalType": "address",
          "name": "student",
          "type": "address"
        },
        {
          "indexed": false,
          "internalType": "string",
          "name": "did",
          "type": "string"
        },
        {
          "indexed": false,
          "internalType": "uint256",
          "name": "timestamp",
          "type": "uint256"
        }
      ],
      "name": "DIDUpdated",
      "type": "event"
    },
    {
      "anonymous": false,
      "inputs": [
        {
          "indexed": true,
          "internalType": "address",
          "name": "previousOwner",
          "type": "address"
        },
        {
          "indexed": true,
          "internalType": "address",
          "name": "newOwner",
          "type": "address"
        }
      ],
      "name": "OwnershipTransferred",
      "type": "event"
    },
    {
      "inputs": [],
      "name": "deactivateDID",
      "outputs": [],
      "stateMutability": "nonpayable",
      "type": "function"
    },
    {
      "inputs": [
        {
          "internalType": "address",
          "name": "",
          "type": "address"
        }
      ],
      "name": "didDocuments",
      "outputs": [
        {
          "internalType": "string",
          "name": "did",
          "type": "string"
        },
        {
          "internalType": "address",
          "name": "student",
          "type": "address"
        },
        {
          "internalType": "string",
          "name": "publicKey",
          "type": "string"
        },
        {
          "internalType": "uint256",
          "name": "createdAt",
          "type": "uint256"
        },
        {
          "internalType": "uint256",
          "name": "updatedAt",
          "type": "uint256"
        },
        {
          "internalType": "bool",
          "name": "active",
          "type": "bool"
        }
      ],
      "stateMutability": "view",
      "type": "function"
    },
    {
      "inputs": [
        {
          "internalType": "string",
          "name": "",
          "type": "string"
        }
      ],
      "name": "didToAddress",
      "outputs": [
        {
          "internalType": "address",
          "name": "",
          "type": "address"
        }
      ],
      "stateMutability": "view",
      "type": "function"
    },
    {
      "inputs": [
        {
          "internalType": "address",
          "name": "_student",
          "type": "address"
        }
      ],
      "name": "getDID",
      "outputs": [
        {
          "internalType": "string",
          "name": "",
          "type": "string"
        }
      ],
      "stateMutability": "view",
      "type": "function"
    },
    {
      "inputs": [
        {
          "internalType": "address",
          "name": "_student",
          "type": "address"
        }
      ],
      "name": "getDIDDocument",
      "outputs": [
        {
          "internalType": "string",
          "name": "did",
          "type": "string"
        },
        {
          "internalType": "address",
          "name": "student",
          "type": "address"
        },
        {
          "internalType": "string",
          "name": "publicKey",
          "type": "string"
        },
        {
          "internalType": "uint256",
          "name": "createdAt",
          "type": "uint256"
        },
        {
          "internalType": "uint256",
          "name": "updatedAt",
          "type": "uint256"
        },
        {
          "internalType": "bool",
          "name": "active",
          "type": "bool"
        }
      ],
      "stateMutability": "view",
      "type": "function"
    },
    {
      "inputs": [
        {
          "internalType": "address",
          "name": "_student",
          "type": "address"
        }
      ],
      "name": "isDIDActive",
      "outputs": [
        {
          "internalType": "bool",
          "name": "",
          "type": "bool"
        }
      ],
      "stateMutability": "view",
      "type": "function"
    },
    {
      "inputs": [],
      "name": "owner",
      "outputs": [
        {
          "internalType": "address",
          "name": "",
          "type": "address"
        }
      ],
      "stateMutability": "view",
      "type": "function"
    },
    {
      "inputs": [
        {
          "internalType": "string",
          "name": "_did",
          "type": "string"
        },
        {
          "internalType": "string",
          "name": "_publicKey",
          "type": "string"
        }
      ],
      "name": "registerDID",
      "outputs": [],
      "stateMutability": "nonpayable",
      "type": "function"
    },
    {
      "inputs": [],
      "name": "renounceOwnership",
      "outputs": [],
      "stateMutability": "nonpayable",
      "type": "function"
    },
    {
      "inputs": [
        {
          "internalType": "string",
          "name": "_did",
          "type": "string"
        }
      ],
      "name": "resolveDID",
      "outputs": [
        {
          "internalType": "address",
          "name": "",
          "type": "address"
        }
      ],
      "stateMutability": "view",
      "type": "function"
    },
    {
      "inputs": [
        {
          "internalType": "address",
          "name": "newOwner",
          "type": "address"
        }
      ],
      "name": "transferOwnership",
      "outputs": [],
      "stateMutability": "nonpayable",
      "type": "function"
    },
    {
      "inputs": [
        {
          "internalType": "string",
          "name": "_publicKey",
          "type": "string"
        }
      ],
      "name": "updateDID",
      "outputs": [],
      "stateMutability": "nonpayable",
      "type": "function"
    }
  ],
  "bytecode": "0x608060405234801561001057600080fd5b50338061003757604051631e4fbdf760e01b81526000600482015260240160405180910390fd5b61004081610046565b50610096565b600080546001600160a01b038381166001600160a01b0319831681178455604051919092169283917f8be0079c531659141344cd1fd0a4f28419497f9722a3daafe3b4186f6b6457e09190a35050565b610f7f806100a56000396000f3fe608060405234801561001057600080fd5b50600436106100b45760003560e01c80637e5c39e9116100715780637e5c39e9146101975780638da5cb5b146101aa5780639d7f0bbf146101bb578063d86bba80146101ce578063f2fde38b146101e1578063f64e30b0146101f457600080fd5b806314c95832146100b95780635b8a59e3146100ce5780636ba1f4a4146100fc57806371422e5d14610148578063715018a614610187578063767bc20e1461018f575b600080fd5b6100cc6100c7366004610ba5565b610214565b005b6100e16100dc366004610be2565b610317565b6040516100f396959493929190610c62565b60405180910390f35b61013061010a366004610ba5565b80516020818301810180516002825292820191909301209152546001600160a01b031681565b6040516001600160a01b0390911681526020016100f3565b610177610156366004610be2565b6001600160a01b031660009081526001602052604090206005015460ff1690565b60405190151581526020016100f3565b6100cc610495565b6100cc6104a9565b6100cc6101a5366004610cb7565b6105ae565b6000546001600160a01b0316610130565b6101306101c9366004610ba5565b610812565b6100e16101dc366004610be2565b610843565b6100cc6101ef366004610be2565b61099b565b610207610202366004610be2565b6109d9565b6040516100f39190610d1b565b336000908152600160208190526040909120908101546001600160a01b03166102795760405162461bcd60e51b8152602060048201526012602482015271111251081b9bdd081c9959da5cdd195c995960721b60448201526064015b60405180910390fd5b600581015460ff166102c25760405162461bcd60e51b8152602060048201526012602482015271111251081a5cc819195858dd1a5d985d195960721b6044820152606401610270565b600281016102d08382610db7565b50426004820181905560405133917f93356fabb365197309ac6eb50274b83740341acc82af3e2058c1da7c0edbb8339161030b918591610e77565b60405180910390a25050565b6001600160a01b038082166000908152600160208190526040822090810154600382015460048301546005840154845460609788968896879687969295869592909416936002860193919260ff90911690869061037390610d2e565b80601f016020809104026020016040519081016040528092919081815260200182805461039f90610d2e565b80156103ec5780601f106103c1576101008083540402835291602001916103ec565b820191906000526020600020905b8154815290600101906020018083116103cf57829003601f168201915b505050505095508380546103ff90610d2e565b80601f016020809104026020016040519081016040528092919081815260200182805461042b90610d2e565b80156104785780601f1061044d57610100808354040283529160200191610478565b820191906000526020600020905b81548152906001019060200180831161045b57829003601f168201915b505050505093509650965096509650965096505091939550919395565b61049d610a85565b6104a76000610ab2565b565b336000908152600160208190526040909120908101546001600160a01b03166105095760405162461bcd60e51b8152602060048201526012602482015271111251081b9bdd081c9959da5cdd195c995960721b6044820152606401610270565b600581015460ff1661055d5760405162461bcd60e51b815260206004820152601760248201527f44494420616c72656164792064656163746976617465640000000000000000006044820152606401610270565b60058101805460ff19169055426004820181905560405133917f103b0595953c98403179a627969f56de19e8ee13f1b863e0658830bc4ab53f53916105a3918591610e77565b60405180910390a250565b60008251116105f55760405162461bcd60e51b81526020600482015260136024820152724449442063616e6e6f7420626520656d70747960681b6044820152606401610270565b33600090815260016020819052604090912001546001600160a01b03161561066f5760405162461bcd60e51b815260206004820152602760248201527f44494420616c7265616479207265676973746572656420666f722074686973206044820152666164647265737360c81b6064820152608401610270565b60006001600160a01b031660028360405161068a9190610f0b565b908152604051908190036020019020546001600160a01b0316146106e95760405162461bcd60e51b815260206004820152601660248201527511125108185b1c9958591e481c9959da5cdd195c995960521b6044820152606401610270565b6040805160c08101825283815233602080830182905282840185905242606084018190526080840152600160a084018190526000928352905291909120815181906107349082610db7565b5060208201516001820180546001600160a01b0319166001600160a01b039092169190911790556040820151600282019061076f9082610db7565b50606082015160038201556080820151600482015560a0909101516005909101805460ff191691151591909117905560405133906002906107b1908590610f0b565b90815260405190819003602001812080546001600160a01b03939093166001600160a01b03199093169290921790915533907f208dff384c909c91beffe978ba88e0014aa203180b2e6a3542e153bcc0f0fced9061030b9085904290610f27565b60006002826040516108249190610f0b565b908152604051908190036020019020546001600160a01b031692915050565b60016020526000908152604090208054819061085e90610d2e565b80601f016020809104026020016040519081016040528092919081815260200182805461088a90610d2e565b80156108d75780601f106108ac576101008083540402835291602001916108d7565b820191906000526020600020905b8154815290600101906020018083116108ba57829003601f168201915b505050600184015460028501805494956001600160a01b0390921694919350915061090190610d2e565b80601f016020809104026020016040519081016040528092919081815260200182805461092d90610d2e565b801561097a5780601f1061094f5761010080835404028352916020019161097a565b820191906000526020600020905b81548152906001019060200180831161095d57829003601f168201915b50505050600383015460048401546005909401549293909290915060ff1686565b6109a3610a85565b6001600160a01b0381166109cd57604051631e4fbdf760e01b815260006004820152602401610270565b6109d681610ab2565b50565b6001600160a01b0381166000908152600160205260409020805460609190610a0090610d2e565b80601f0160208091040260200160405190810160405280929190818152602001828054610a2c90610d2e565b8015610a795780601f10610a4e57610100808354040283529160200191610a79565b820191906000526020600020905b815481529060010190602001808311610a5c57829003601f168201915b50505050509050919050565b6000546001600160a01b031633146104a75760405163118cdaa760e01b8152336004820152602401610270565b600080546001600160a01b038381166001600160a01b0319831681178455604051919092169283917f8be0079c531659141344cd1fd0a4f28419497f9722a3daafe3b4186f6b6457e09190a35050565b634e487b7160e01b600052604160045260246000fd5b600082601f830112610b2957600080fd5b813567ffffffffffffffff80821115610b4457610b44610b02565b604051601f8301601f19908116603f01168101908282118183101715610b6c57610b6c610b02565b81604052838152866020858801011115610b8557600080fd5b836020870160208301376000602085830101528094505050505092915050565b600060208284031215610bb757600080fd5b813567ffffffffffffffff811115610bce57600080fd5b610bda84828501610b18565b949350505050565b600060208284031215610bf457600080fd5b81356001600160a01b0381168114610c0b57600080fd5b9392505050565b60005b83811015610c2d578181015183820152602001610c15565b50506000910152565b60008151808452610c4e816020860160208601610c12565b601f01601f19169290920160200192915050565b60c081526000610c7560c0830189610c36565b6001600160a01b03881660208401528281036040840152610c968188610c36565b606084019690965250506080810192909252151560a0909101529392505050565b60008060408385031215610cca57600080fd5b823567ffffffffffffffff80821115610ce257600080fd5b610cee86838701610b18565b93506020850135915080821115610d0457600080fd5b50610d1185828601610b18565b9150509250929050565b602081526000610c0b6020830184610c36565b600181811c90821680610d4257607f821691505b602082108103610d6257634e487b7160e01b600052602260045260246000fd5b50919050565b601f821115610db257600081815260208120601f850160051c81016020861015610d8f5750805b601f850160051c820191505b81811015610dae57828155600101610d9b565b5050505b505050565b815167ffffffffffffffff811115610dd157610dd1610b02565b610de581610ddf8454610d2e565b84610d68565b602080601f831160018114610e1a5760008415610e025750858301515b600019600386901b1c1916600185901b178555610dae565b600085815260208120601f198616915b82811015610e4957888601518255948401946001909101908401610e2a565b5085821015610e675787850151600019600388901b60f8161c191681555b5050505050600190811b01905550565b604081526000808454610e8981610d2e565b8060408601526060600180841660008114610eab5760018114610ec557610ef6565b60ff1985168884015283151560051b880183019550610ef6565b8960005260208060002060005b86811015610eed5781548b8201870152908401908201610ed2565b8a018501975050505b50505050506020929092019290925292915050565b60008251610f1d818460208701610c12565b9190910192915050565b604081526000610f3a6040830185610c36565b9050826020830152939250505056fea2646970667358221220f9ff55dc212335b76b746fba135dd62156216e3a6b18f6ebf63c69066048232c64736f6c63430008140033",
  "linkReferences": {},
  "deployedLinkReferences": {}
}