{
  "_format": "hh-sol-artifact-1",
  "contractName": "CredentialRegistry",
  "sourceName": "contracts/CredentialRegistry.sol",
  "abi": [
    {
      "inputs": [],
      "stateMutability": "nonpayable",
      "type": "constructor"
    },
    {
      "inputs": [
        {
          "internalType": "address",
          "name": "owner",
          "type": "address"
        }
      ],
      "name": "OwnableInvalidOwner",
      "type": "error"
    },
    {
      "inputs": [
        {
          "internalType": "address",
          "name": "account",
          "type": "address"
        }
      ],
      "name": "OwnableUnauthorizedAccount",
      "type": "error"
    },
    {
      "anonymous": false,
      "inputs": [
        {
          "indexed": true,
          "internalType": "uint256",
          "name": "credentialId",
          "type": "uint256"
        },
        {
          "indexed": true,
          "internalType": "address",
          "name": "endorser",
          "type": "address"
        }
      ],
      "name": "CredentialEndorsed",
      "type": "event"
    },
    {
      "anonymous": false,
      "inputs": [
        {
          "indexed": true,
          "internalType": "uint256",
          "name": "credentialId",
          "type": "uint256"
        },
        {
          "indexed": true,
          "internalType": "address",
          "name": "student",
          "type": "address"
        },
        {
          "indexed": true,
          "internalType": "address",
          "name": "issuer",
          "type": "address"
        },
        {
          "indexed": false,
          "internalType": "string",
          "name": "uri",
          "type": "string"
        }
      ],
      "name": "CredentialIssued",
      "type": "event"
    },
    {
      "anonymous": false,
      "inputs": [
        {
          "indexed": true,
          "internalType": "uint256",
          "name": "credentialId",
          "type": "uint256"
        },
        {
          "indexed": true,
          "internalType": "address",
          "name": "revokedBy",
          "type": "address"
        }
      ],
      "name": "CredentialRevoked",
      "type": "event"
    },
    {
      "anonymous": false,
      "inputs": [
        {
          "indexed": true,
          "internalType": "address",
          "name": "previousOwner",
          "type": "address"
        },
        {
          "indexed": true,
          "internalType": "address",
          "name": "newOwner",
          "type": "address"
        }
      ],
      "name": "OwnershipTransferred",
      "type": "event"
    },
    {
      "inputs": [
        {
          "internalType": "uint256",
          "name": "",
          "type": "uint256"
        }
      ],
      "name": "credentials",
      "outputs": [
        {
          "internalType": "uint256",
          "name": "id",
          "type": "uint256"
        },
        {
          "internalType": "address",
          "name": "student",
          "type": "address"
        },
        {
          "internalType": "address",
          "name": "issuer",
          "type": "address"
        },
        {
          "internalType": "string",
          "name": "uri",
          "type": "string"
        },
        {
          "internalType": "uint256",
          "name": "issuedAt",
          "type": "uint256"
        },
        {
          "internalType": "bool",
          "name": "revoked",
          "type": "bool"
        },
        {
          "internalType": "uint256",
          "name": "endorsementCount",
          "type": "uint256"
        }
      ],
      "stateMutability": "view",
      "type": "function"
    },
    {
      "inputs": [
        {
          "internalType": "uint256",
          "name": "_credentialId",
          "type": "uint256"
        }
      ],
      "name": "endorseCredential",
      "outputs": [],
      "stateMutability": "nonpayable",
      "type": "function"
    },
    {
      "inputs": [
        {
          "internalType": "uint256",
          "name": "",
          "type": "uint256"
        },
        {
          "internalType": "address",
          "name": "",
          "type": "address"
        }
      ],
      "name": "endorsements",
      "outputs": [
        {
          "internalType": "bool",
          "name": "",
          "type": "bool"
        }
      ],
      "stateMutability": "view",
      "type": "function"
    },
    {
      "inputs": [
        {
          "internalType": "uint256",
          "name": "_credentialId",
          "type": "uint256"
        }
      ],
      "name": "getCredential",
      "outputs": [
        {
          "internalType": "uint256",
          "name": "id",
          "type": "uint256"
        },
        {
          "internalType": "address",
          "name": "student",
          "type": "address"
        },
        {
          "internalType": "address",
          "name": "issuer",
          "type": "address"
        },
        {
          "internalType": "string",
          "name": "uri",
          "type": "string"
        },
        {
          "internalType": "uint256",
          "name": "issuedAt",
          "type": "uint256"
        },
        {
          "internalType": "bool",
          "name": "revoked",
          "type": "bool"
        },
        {
          "internalType": "uint256",
          "name": "endorsementCount",
          "type": "uint256"
        }
      ],
      "stateMutability": "view",
      "type": "function"
    },
    {
      "inputs": [
        {
          "internalType": "address",
          "name": "_student",
          "type": "address"
        }
      ],
      "name": "getStudentCredentials",
      "outputs": [
        {
          "internalType": "uint256[]",
          "name": "",
          "type": "uint256[]"
        }
      ],
      "stateMutability": "view",
      "type": "function"
    },
    {
      "inputs": [],
      "name": "getTotalCredentials",
      "outputs": [
        {
          "internalType": "uint256",
          "name": "",
          "type": "uint256"
        }
      ],
      "stateMutability": "view",
      "type": "function"
    },
    {
      "inputs": [
        {
          "internalType": "address",
          "name": "_student",
          "type": "address"
        },
        {
          "internalType": "string",
          "name": "_uri",
          "type": "string"
        }
      ],
      "name": "issueCredential",
      "outputs": [
        {
          "internalType": "uint256",
          "name": "",
          "type": "uint256"
        }
      ],
      "stateMutability": "nonpayable",
      "type": "function"
    },
    {
      "inputs": [],
      "name": "owner",
      "outputs": [
        {
          "internalType": "address",
          "name": "",
          "type": "address"
        }
      ],
      "stateMutability": "view",
      "type": "function"
    },
    {
      "inputs": [],
      "name": "renounceOwnership",
      "outputs": [],
      "stateMutability": "nonpayable",
      "type": "function"
    },
    {
      "inputs": [
        {
          "internalType": "uint256",
          "name": "_credentialId",
          "type": "uint256"
        }
      ],
      "name": "revokeCredential",
      "outputs": [],
      "stateMutability": "nonpayable",
      "type": "function"
    },
    {
      "inputs": [
        {
          "internalType": "address",
          "name": "",
          "type": "address"
        },
        {
          "internalType": "uint256",
          "name": "",
          "type": "uint256"
        }
      ],
      "name": "studentCredentials",
      "outputs": [
        {
          "internalType": "uint256",
          "name": "",
          "type": "uint256"
        }
      ],
      "stateMutability": "view",
      "type": "function"
    },
    {
      "inputs": [
        {
          "internalType": "address",
          "name": "newOwner",
          "type": "address"
        }
      ],
      "name": "transferOwnership",
      "outputs": [],
      "stateMutability": "nonpayable",
      "type": "function"
    },
    {
      "inputs": [
        {
          "internalType": "uint256",
          "name": "_credentialId",
          "type": "uint256"
        }
      ],
      "name": "verifyCredential",
      "outputs": [
        {
          "internalType": "bool",
          "name": "",
          "type": "bool"
        }
      ],
      "stateMutability": "view",
      "type": "function"
    }
  ],
  "bytecode": "0x608060405234801561001057600080fd5b50338061003757604051631e4fbdf760e01b81526000600482015260240160405180910390fd5b61004081610046565b50610096565b600080546001600160a01b038381166001600160a01b0319831681178455604051919092169283917f8be0079c531659141344cd1fd0a4f28419497f9722a3daafe3b4186f6b6457e09190a35050565b610e7f806100a56000396000f3fe608060405234801561001057600080fd5b50600436106100cf5760003560e01c80638dd18d2d1161008c578063e0574e3f11610066578063e0574e3f146101dc578063f1470a35146101ef578063f2a91b1c146101f7578063f2fde38b1461020a57600080fd5b80638dd18d2d1461019057806390c7c49c146101b6578063d53367f5146101c957600080fd5b80630dd308cd146100d45780631b87278d146100fa578063218cdc321461010f57806324596cec1461012f578063715018a61461016d5780638da5cb5b14610175575b600080fd5b6100e76100e2366004610a52565b61021d565b6040519081526020015b60405180910390f35b61010d610108366004610a7c565b61024e565b005b61012261011d366004610a95565b61039b565b6040516100f19190610ab0565b61015d61013d366004610af4565b600360209081526000928352604080842090915290825290205460ff1681565b60405190151581526020016100f1565b61010d610407565b6000546040516001600160a01b0390911681526020016100f1565b6101a361019e366004610a7c565b61041b565b6040516100f19796959493929190610b66565b6100e76101c4366004610bcd565b610534565b61010d6101d7366004610a7c565b610725565b6101a36101ea366004610a7c565b61087a565b6001546100e7565b61015d610205366004610a7c565b610951565b61010d610218366004610a95565b61097b565b6004602052816000526040600020818154811061023957600080fd5b90600052602060002001600091509150505481565b600081815260026020526040812080549091036102865760405162461bcd60e51b815260040161027d90610c8f565b60405180910390fd5b600581015460ff16156102db5760405162461bcd60e51b815260206004820152601a60248201527f43726564656e7469616c20616c7265616479207265766f6b6564000000000000604482015260640161027d565b60028101546001600160a01b031633148061030f5750336103046000546001600160a01b031690565b6001600160a01b0316145b61035b5760405162461bcd60e51b815260206004820152601860248201527f4e6f7420617574686f72697a656420746f207265766f6b650000000000000000604482015260640161027d565b60058101805460ff19166001179055604051339083907f936526f4a3155895d9f01699716f2e0c548d726a24a1437e5ce92b3dacaad35b90600090a35050565b6001600160a01b0381166000908152600460209081526040918290208054835181840281018401909452808452606093928301828280156103fb57602002820191906000526020600020905b8154815260200190600101908083116103e7575b50505050509050919050565b61040f6109b9565b61041960006109e6565b565b600081815260026020526040812080548291829160609183918291829182036104565760405162461bcd60e51b815260040161027d90610c8f565b8054600182015460028301546004840154600585015460068601546003870180546001600160a01b03968716969095169490939260ff169190849061049a90610cc6565b80601f01602080910402602001604051908101604052809291908181526020018280546104c690610cc6565b80156105135780601f106104e857610100808354040283529160200191610513565b820191906000526020600020905b8154815290600101906020018083116104f657829003601f168201915b50505050509350975097509750975097509750975050919395979092949650565b60006001600160a01b03831661058c5760405162461bcd60e51b815260206004820152601760248201527f496e76616c69642073747564656e742061646472657373000000000000000000604482015260640161027d565b60008251116105d35760405162461bcd60e51b81526020600482015260136024820152725552492063616e6e6f7420626520656d70747960681b604482015260640161027d565b600180549060006105e383610d00565b9091555050600180546040805160e0810182528281526001600160a01b03808816602080840191825233848601908152606085018a8152426080870152600060a0870181905260c087018190528881526002938490529690962085518155925197830180549885166001600160a01b0319998a1617905551908201805491909316961695909517905590519192909160038201906106819082610d76565b50608082015160048281019190915560a083015160058301805460ff191691151591909117905560c0909201516006909101556001600160a01b038516600081815260209283526040808220805460018101825590835293909120909201839055905133919083907fd1de861db6c309080253d2536a1767c11ee81a3fb2ab87b4e83aa298c2bcbc8d90610716908890610e36565b60405180910390a49392505050565b600081815260026020526040812080549091036107545760405162461bcd60e51b815260040161027d90610c8f565b600581015460ff16156107b35760405162461bcd60e51b815260206004820152602160248201527f43616e6e6f7420656e646f727365207265766f6b65642063726564656e7469616044820152601b60fa1b606482015260840161027d565b600082815260036020908152604080832033845290915290205460ff16156108105760405162461bcd60e51b815260206004820152601060248201526f105b1c9958591e48195b991bdc9cd95960821b604482015260640161027d565b60008281526003602090815260408083203384529091528120805460ff191660011790556006820180549161084483610d00565b9091555050604051339083907f4f9736071b23cb7f6a18bfabdf7eec9926be2cc55d6858f9c9d032fcc2f810b590600090a35050565b6002602081905260009182526040909120805460018201549282015460038301805492946001600160a01b03908116949216926108b690610cc6565b80601f01602080910402602001604051908101604052809291908181526020018280546108e290610cc6565b801561092f5780601f106109045761010080835404028352916020019161092f565b820191906000526020600020905b81548152906001019060200180831161091257829003601f168201915b50505050600483015460058401546006909401549293909260ff909116915087565b60008181526002602052604081208054158015906109745750600581015460ff16155b9392505050565b6109836109b9565b6001600160a01b0381166109ad57604051631e4fbdf760e01b81526000600482015260240161027d565b6109b6816109e6565b50565b6000546001600160a01b031633146104195760405163118cdaa760e01b815233600482015260240161027d565b600080546001600160a01b038381166001600160a01b0319831681178455604051919092169283917f8be0079c531659141344cd1fd0a4f28419497f9722a3daafe3b4186f6b6457e09190a35050565b80356001600160a01b0381168114610a4d57600080fd5b919050565b60008060408385031215610a6557600080fd5b610a6e83610a36565b946020939093013593505050565b600060208284031215610a8e57600080fd5b5035919050565b600060208284031215610aa757600080fd5b61097482610a36565b6020808252825182820181905260009190848201906040850190845b81811015610ae857835183529284019291840191600101610acc565b50909695505050505050565b60008060408385031215610b0757600080fd5b82359150610b1760208401610a36565b90509250929050565b6000815180845260005b81811015610b4657602081850181015186830182015201610b2a565b506000602082860101526020601f19601f83011685010191505092915050565b8781526001600160a01b0387811660208301528616604082015260e060608201819052600090610b9890830187610b20565b60808301959095525091151560a083015260c090910152949350505050565b634e487b7160e01b600052604160045260246000fd5b60008060408385031215610be057600080fd5b610be983610a36565b9150602083013567ffffffffffffffff80821115610c0657600080fd5b818501915085601f830112610c1a57600080fd5b813581811115610c2c57610c2c610bb7565b604051601f8201601f19908116603f01168101908382118183101715610c5457610c54610bb7565b81604052828152886020848701011115610c6d57600080fd5b8260208601602083013760006020848301015280955050505050509250929050565b60208082526019908201527f43726564656e7469616c20646f6573206e6f7420657869737400000000000000604082015260600190565b600181811c90821680610cda57607f821691505b602082108103610cfa57634e487b7160e01b600052602260045260246000fd5b50919050565b600060018201610d2057634e487b7160e01b600052601160045260246000fd5b5060010190565b601f821115610d7157600081815260208120601f850160051c81016020861015610d4e5750805b601f850160051c820191505b81811015610d6d57828155600101610d5a565b5050505b505050565b815167ffffffffffffffff811115610d9057610d90610bb7565b610da481610d9e8454610cc6565b84610d27565b602080601f831160018114610dd95760008415610dc15750858301515b600019600386901b1c1916600185901b178555610d6d565b600085815260208120601f198616915b82811015610e0857888601518255948401946001909101908401610de9565b5085821015610e265787850151600019600388901b60f8161c191681555b5050505050600190811b01905550565b6020815260006109746020830184610b2056fea264697066735822122070e9f65b2634e5c1df4275bdb20f51c539e8e745b82969eee05dc7024aca277264736f6c63430008140033",
  "linkReferences": {},
  "deployedLinkReferences": {}
}