{
  "_format": "hh-sol-artifact-1",
  "contractName": "NFTBadge",
  "sourceName": "contracts/NFTBadge.sol",
  "abi": [
    {
      "inputs": [],
      "stateMutability": "nonpayable",
      "type": "constructor"
    },
    {
      "inputs": [
        {
          "internalType": "address",
          "name": "sender",
          "type": "address"
        },
        {
          "internalType": "uint256",
          "name": "tokenId",
          "type": "uint256"
        },
        {
          "internalType": "address",
          "name": "owner",
          "type": "address"
        }
      ],
      "name": "ERC721IncorrectOwner",
      "type": "error"
    },
    {
      "inputs": [
        {
          "internalType": "address",
          "name": "operator",
          "type": "address"
        },
        {
          "internalType": "uint256",
          "name": "tokenId",
          "type": "uint256"
        }
      ],
      "name": "ERC721InsufficientApproval",
      "type": "error"
    },
    {
      "inputs": [
        {
          "internalType": "address",
          "name": "approver",
          "type": "address"
        }
      ],
      "name": "ERC721InvalidApprover",
      "type": "error"
    },
    {
      "inputs": [
        {
          "internalType": "address",
          "name": "operator",
          "type": "address"
        }
      ],
      "name": "ERC721InvalidOperator",
      "type": "error"
    },
    {
      "inputs": [
        {
          "internalType": "address",
          "name": "owner",
          "type": "address"
        }
      ],
      "name": "ERC721InvalidOwner",
      "type": "error"
    },
    {
      "inputs": [
        {
          "internalType": "address",
          "name": "receiver",
          "type": "address"
        }
      ],
      "name": "ERC721InvalidReceiver",
      "type": "error"
    },
    {
      "inputs": [
        {
          "internalType": "address",
          "name": "sender",
          "type": "address"
        }
      ],
      "name": "ERC721InvalidSender",
      "type": "error"
    },
    {
      "inputs": [
        {
          "internalType": "uint256",
          "name": "tokenId",
          "type": "uint256"
        }
      ],
      "name": "ERC721NonexistentToken",
      "type": "error"
    },
    {
      "inputs": [
        {
          "internalType": "address",
          "name": "owner",
          "type": "address"
        }
      ],
      "name": "OwnableInvalidOwner",
      "type": "error"
    },
    {
      "inputs": [
        {
          "internalType": "address",
          "name": "account",
          "type": "address"
        }
      ],
      "name": "OwnableUnauthorizedAccount",
      "type": "error"
    },
    {
      "anonymous": false,
      "inputs": [
        {
          "indexed": true,
          "internalType": "address",
          "name": "owner",
          "type": "address"
        },
        {
          "indexed": true,
          "internalType": "address",
          "name": "approved",
          "type": "address"
        },
        {
          "indexed": true,
          "internalType": "uint256",
          "name": "tokenId",
          "type": "uint256"
        }
      ],
      "name": "Approval",
      "type": "event"
    },
    {
      "anonymous": false,
      "inputs": [
        {
          "indexed": true,
          "internalType": "address",
          "name": "owner",
          "type": "address"
        },
        {
          "indexed": true,
          "internalType": "address",
          "name": "operator",
          "type": "address"
        },
        {
          "indexed": false,
          "internalType": "bool",
          "name": "approved",
          "type": "bool"
        }
      ],
      "name": "ApprovalForAll",
      "type": "event"
    },
    {
      "anonymous": false,
      "inputs": [
        {
          "indexed": true,
          "internalType": "uint256",
          "name": "tokenId",
          "type": "uint256"
        },
        {
          "indexed": true,
          "internalType": "address",
          "name": "to",
          "type": "address"
        },
        {
          "indexed": false,
          "internalType": "string",
          "name": "skillName",
          "type": "string"
        },
        {
          "indexed": false,
          "internalType": "uint256",
          "name": "level",
          "type": "uint256"
        }
      ],
      "name": "BadgeMinted",
      "type": "event"
    },
    {
      "anonymous": false,
      "inputs": [
        {
          "indexed": true,
          "internalType": "address",
          "name": "previousOwner",
          "type": "address"
        },
        {
          "indexed": true,
          "internalType": "address",
          "name": "newOwner",
          "type": "address"
        }
      ],
      "name": "OwnershipTransferred",
      "type": "event"
    },
    {
      "anonymous": false,
      "inputs": [
        {
          "indexed": true,
          "internalType": "address",
          "name": "from",
          "type": "address"
        },
        {
          "indexed": true,
          "internalType": "address",
          "name": "to",
          "type": "address"
        },
        {
          "indexed": true,
          "internalType": "uint256",
          "name": "tokenId",
          "type": "uint256"
        }
      ],
      "name": "Transfer",
      "type": "event"
    },
    {
      "inputs": [
        {
          "internalType": "address",
          "name": "to",
          "type": "address"
        },
        {
          "internalType": "uint256",
          "name": "tokenId",
          "type": "uint256"
        }
      ],
      "name": "approve",
      "outputs": [],
      "stateMutability": "nonpayable",
      "type": "function"
    },
    {
      "inputs": [
        {
          "internalType": "uint256",
          "name": "",
          "type": "uint256"
        }
      ],
      "name": "badges",
      "outputs": [
        {
          "internalType": "uint256",
          "name": "tokenId",
          "type": "uint256"
        },
        {
          "internalType": "address",
          "name": "student",
          "type": "address"
        },
        {
          "internalType": "string",
          "name": "skillName",
          "type": "string"
        },
        {
          "internalType": "uint256",
          "name": "level",
          "type": "uint256"
        },
        {
          "internalType": "uint256",
          "name": "timestamp",
          "type": "uint256"
        },
        {
          "internalType": "string",
          "name": "uri",
          "type": "string"
        }
      ],
      "stateMutability": "view",
      "type": "function"
    },
    {
      "inputs": [
        {
          "internalType": "address",
          "name": "owner",
          "type": "address"
        }
      ],
      "name": "balanceOf",
      "outputs": [
        {
          "internalType": "uint256",
          "name": "",
          "type": "uint256"
        }
      ],
      "stateMutability": "view",
      "type": "function"
    },
    {
      "inputs": [
        {
          "internalType": "uint256",
          "name": "tokenId",
          "type": "uint256"
        }
      ],
      "name": "getApproved",
      "outputs": [
        {
          "internalType": "address",
          "name": "",
          "type": "address"
        }
      ],
      "stateMutability": "view",
      "type": "function"
    },
    {
      "inputs": [
        {
          "internalType": "uint256",
          "name": "_tokenId",
          "type": "uint256"
        }
      ],
      "name": "getBadge",
      "outputs": [
        {
          "components": [
            {
              "internalType": "uint256",
              "name": "tokenId",
              "type": "uint256"
            },
            {
              "internalType": "address",
              "name": "student",
              "type": "address"
            },
            {
              "internalType": "string",
              "name": "skillName",
              "type": "string"
            },
            {
              "internalType": "uint256",
              "name": "level",
              "type": "uint256"
            },
            {
              "internalType": "uint256",
              "name": "timestamp",
              "type": "uint256"
            },
            {
              "internalType": "string",
              "name": "uri",
              "type": "string"
            }
          ],
          "internalType": "struct NFTBadge.Badge",
          "name": "",
          "type": "tuple"
        }
      ],
      "stateMutability": "view",
      "type": "function"
    },
    {
      "inputs": [
        {
          "internalType": "address",
          "name": "_student",
          "type": "address"
        }
      ],
      "name": "getBadgeCount",
      "outputs": [
        {
          "internalType": "uint256",
          "name": "",
          "type": "uint256"
        }
      ],
      "stateMutability": "view",
      "type": "function"
    },
    {
      "inputs": [
        {
          "internalType": "address",
          "name": "_student",
          "type": "address"
        }
      ],
      "name": "getStudentBadges",
      "outputs": [
        {
          "internalType": "uint256[]",
          "name": "",
          "type": "uint256[]"
        }
      ],
      "stateMutability": "view",
      "type": "function"
    },
    {
      "inputs": [],
      "name": "getTotalBadges",
      "outputs": [
        {
          "internalType": "uint256",
          "name": "",
          "type": "uint256"
        }
      ],
      "stateMutability": "view",
      "type": "function"
    },
    {
      "inputs": [
        {
          "internalType": "address",
          "name": "owner",
          "type": "address"
        },
        {
          "internalType": "address",
          "name": "operator",
          "type": "address"
        }
      ],
      "name": "isApprovedForAll",
      "outputs": [
        {
          "internalType": "bool",
          "name": "",
          "type": "bool"
        }
      ],
      "stateMutability": "view",
      "type": "function"
    },
    {
      "inputs": [
        {
          "internalType": "address",
          "name": "_to",
          "type": "address"
        },
        {
          "internalType": "uint256",
          "name": "_credentialId",
          "type": "uint256"
        },
        {
          "internalType": "string",
          "name": "_uri",
          "type": "string"
        }
      ],
      "name": "mintBadge",
      "outputs": [
        {
          "internalType": "uint256",
          "name": "",
          "type": "uint256"
        }
      ],
      "stateMutability": "nonpayable",
      "type": "function"
    },
    {
      "inputs": [
        {
          "internalType": "address",
          "name": "_to",
          "type": "address"
        },
        {
          "internalType": "string",
          "name": "_skillName",
          "type": "string"
        },
        {
          "internalType": "uint256",
          "name": "_level",
          "type": "uint256"
        },
        {
          "internalType": "string",
          "name": "_uri",
          "type": "string"
        }
      ],
      "name": "mintSkillBadge",
      "outputs": [
        {
          "internalType": "uint256",
          "name": "",
          "type": "uint256"
        }
      ],
      "stateMutability": "nonpayable",
      "type": "function"
    },
    {
      "inputs": [],
      "name": "name",
      "outputs": [
        {
          "internalType": "string",
          "name": "",
          "type": "string"
        }
      ],
      "stateMutability": "view",
      "type": "function"
    },
    {
      "inputs": [],
      "name": "owner",
      "outputs": [
        {
          "internalType": "address",
          "name": "",
          "type": "address"
        }
      ],
      "stateMutability": "view",
      "type": "function"
    },
    {
      "inputs": [
        {
          "internalType": "uint256",
          "name": "tokenId",
          "type": "uint256"
        }
      ],
      "name": "ownerOf",
      "outputs": [
        {
          "internalType": "address",
          "name": "",
          "type": "address"
        }
      ],
      "stateMutability": "view",
      "type": "function"
    },
    {
      "inputs": [],
      "name": "renounceOwnership",
      "outputs": [],
      "stateMutability": "nonpayable",
      "type": "function"
    },
    {
      "inputs": [
        {
          "internalType": "address",
          "name": "from",
          "type": "address"
        },
        {
          "internalType": "address",
          "name": "to",
          "type": "address"
        },
        {
          "internalType": "uint256",
          "name": "tokenId",
          "type": "uint256"
        }
      ],
      "name": "safeTransferFrom",
      "outputs": [],
      "stateMutability": "nonpayable",
      "type": "function"
    },
    {
      "inputs": [
        {
          "internalType": "address",
          "name": "from",
          "type": "address"
        },
        {
          "internalType": "address",
          "name": "to",
          "type": "address"
        },
        {
          "internalType": "uint256",
          "name": "tokenId",
          "type": "uint256"
        },
        {
          "internalType": "bytes",
          "name": "data",
          "type": "bytes"
        }
      ],
      "name": "safeTransferFrom",
      "outputs": [],
      "stateMutability": "nonpayable",
      "type": "function"
    },
    {
      "inputs": [
        {
          "internalType": "address",
          "name": "operator",
          "type": "address"
        },
        {
          "internalType": "bool",
          "name": "approved",
          "type": "bool"
        }
      ],
      "name": "setApprovalForAll",
      "outputs": [],
      "stateMutability": "nonpayable",
      "type": "function"
    },
    {
      "inputs": [
        {
          "internalType": "address",
          "name": "",
          "type": "address"
        },
        {
          "internalType": "uint256",
          "name": "",
          "type": "uint256"
        }
      ],
      "name": "studentBadges",
      "outputs": [
        {
          "internalType": "uint256",
          "name": "",
          "type": "uint256"
        }
      ],
      "stateMutability": "view",
      "type": "function"
    },
    {
      "inputs": [
        {
          "internalType": "bytes4",
          "name": "interfaceId",
          "type": "bytes4"
        }
      ],
      "name": "supportsInterface",
      "outputs": [
        {
          "internalType": "bool",
          "name": "",
          "type": "bool"
        }
      ],
      "stateMutability": "view",
      "type": "function"
    },
    {
      "inputs": [],
      "name": "symbol",
      "outputs": [
        {
          "internalType": "string",
          "name": "",
          "type": "string"
        }
      ],
      "stateMutability": "view",
      "type": "function"
    },
    {
      "inputs": [
        {
          "internalType": "uint256",
          "name": "",
          "type": "uint256"
        }
      ],
      "name": "tokenCredential",
      "outputs": [
        {
          "internalType": "uint256",
          "name": "",
          "type": "uint256"
        }
      ],
      "stateMutability": "view",
      "type": "function"
    },
    {
      "inputs": [
        {
          "internalType": "uint256",
          "name": "tokenId",
          "type": "uint256"
        }
      ],
      "name": "tokenURI",
      "outputs": [
        {
          "internalType": "string",
          "name": "",
          "type": "string"
        }
      ],
      "stateMutability": "view",
      "type": "function"
    },
    {
      "inputs": [
        {
          "internalType": "address",
          "name": "from",
          "type": "address"
        },
        {
          "internalType": "address",
          "name": "to",
          "type": "address"
        },
        {
          "internalType": "uint256",
          "name": "tokenId",
          "type": "uint256"
        }
      ],
      "name": "transferFrom",
      "outputs": [],
      "stateMutability": "nonpayable",
      "type": "function"
    },
    {
      "inputs": [
        {
          "internalType": "address",
          "name": "newOwner",
          "type": "address"
        }
      ],
      "name": "transferOwnership",
      "outputs": [],
      "stateMutability": "nonpayable",
      "type": "function"
    }
  ],
  "bytecode": "0x60806040523480156200001157600080fd5b50336040518060400160405280600a815260200169536b696c6c426164676560b01b8152506040518060400160405280600681526020016553424144474560d01b8152508160009081620000669190620001b0565b506001620000758282620001b0565b5050506001600160a01b038116620000a757604051631e4fbdf760e01b81526000600482015260240160405180910390fd5b620000b281620000b9565b506200027c565b600680546001600160a01b038381166001600160a01b0319831681179093556040519116919082907f8be0079c531659141344cd1fd0a4f28419497f9722a3daafe3b4186f6b6457e090600090a35050565b634e487b7160e01b600052604160045260246000fd5b600181811c908216806200013657607f821691505b6020821081036200015757634e487b7160e01b600052602260045260246000fd5b50919050565b601f821115620001ab57600081815260208120601f850160051c81016020861015620001865750805b601f850160051c820191505b81811015620001a75782815560010162000192565b5050505b505050565b81516001600160401b03811115620001cc57620001cc6200010b565b620001e481620001dd845462000121565b846200015d565b602080601f8311600181146200021c5760008415620002035750858301515b600019600386901b1c1916600185901b178555620001a7565b600085815260208120601f198616915b828110156200024d578886015182559484019460019091019084016200022c565b50858210156200026c5787850151600019600388901b60f8161c191681555b5050505050600190811b01905550565b611bde806200028c6000396000f3fe608060405234801561001057600080fd5b50600436106101735760003560e01c806370a08231116100de57806398e36d8b11610097578063b88d4fde11610071578063b88d4fde14610372578063c87b56dd14610385578063e985e9c514610398578063f2fde38b146103ab57600080fd5b806398e36d8b1461031a5780639ee8921b1461033f578063a22cb4651461035f57600080fd5b806370a08231146102b3578063715018a6146102c657806374afd802146102ce5780638d838622146102e15780638da5cb5b1461030157806395d89b411461031257600080fd5b806323b872dd1161013057806323b872dd1461024c57806342842e0e1461025f57806347ea818414610272578063547cd6441461027a578063617593661461028d5780636352211e146102a057600080fd5b806301d685cc1461017857806301ffc9a7146101ab57806306fdde03146101ce578063081812fc146101e3578063095ea7b31461020e5780630fb91b8814610223575b600080fd5b610198610186366004611511565b600a6020526000908152604090205481565b6040519081526020015b60405180910390f35b6101be6101b9366004611540565b6103be565b60405190151581526020016101a2565b6101d6610410565b6040516101a291906115aa565b6101f66101f1366004611511565b6104a2565b6040516001600160a01b0390911681526020016101a2565b61022161021c3660046115d9565b6104cb565b005b610198610231366004611603565b6001600160a01b031660009081526009602052604090205490565b61022161025a36600461161e565b6104da565b61022161026d36600461161e565b61056a565b600754610198565b6101986102883660046115d9565b61058a565b61019861029b366004611706565b6105bb565b6101f66102ae366004611511565b610790565b6101986102c1366004611603565b61079b565b6102216107e3565b6101986102dc366004611784565b6107f7565b6102f46102ef366004611511565b61099f565b6040516101a291906117db565b6006546001600160a01b03166101f6565b6101d6610ba6565b61032d610328366004611511565b610bb5565b6040516101a29695949392919061184d565b61035261034d366004611603565b610d04565b6040516101a291906118a2565b61022161036d3660046118e6565b610d70565b610221610380366004611922565b610d7b565b6101d6610393366004611511565b610d93565b6101be6103a6366004611992565b610e81565b6102216103b9366004611603565b610eaf565b60006001600160e01b031982166380ac58cd60e01b14806103ef57506001600160e01b03198216635b5e139f60e01b145b8061040a57506301ffc9a760e01b6001600160e01b03198316145b92915050565b60606000805461041f906119c5565b80601f016020809104026020016040519081016040528092919081815260200182805461044b906119c5565b80156104985780601f1061046d57610100808354040283529160200191610498565b820191906000526020600020905b81548152906001019060200180831161047b57829003601f168201915b5050505050905090565b60006104ad82610eed565b506000828152600460205260409020546001600160a01b031661040a565b6104d6828233610f26565b5050565b6001600160a01b03821661050957604051633250574960e11b8152600060048201526024015b60405180910390fd5b6000610516838333610f33565b9050836001600160a01b0316816001600160a01b031614610564576040516364283d7b60e01b81526001600160a01b0380861660048301526024820184905282166044820152606401610500565b50505050565b61058583838360405180602001604052806000815250610d7b565b505050565b600960205281600052604060002081815481106105a657600080fd5b90600052602060002001600091509150505481565b60006001600160a01b0385166106055760405162461bcd60e51b815260206004820152600f60248201526e496e76616c6964206164647265737360881b6044820152606401610500565b60018310158015610617575060058311155b6106535760405162461bcd60e51b815260206004820152600d60248201526c125b9d985b1a59081b195d995b609a1b6044820152606401610500565b60078054906000610663836119ff565b9091555050600754610675868261102c565b61067f8184611046565b6001600160a01b03868116600081815260096020908152604080832080546001808201835591855283852001879055815160c0810183528781528084019586528083018c8152606082018c905242608083015260a082018b905288865260089094529190932081518155935192840180546001600160a01b0319169390951692909217909355915160028201906107169082611a6c565b50606082015160038201556080820151600482015560a0820151600582019061073f9082611a6c565b50905050856001600160a01b0316817f3b6c69e97993b0d5b822b4d79ba5e10459e13005a530122a474abc189b9d7977878760405161077f929190611b2c565b60405180910390a395945050505050565b600061040a82610eed565b60006001600160a01b0382166107c7576040516322718ad960e21b815260006004820152602401610500565b506001600160a01b031660009081526003602052604090205490565b6107eb61105e565b6107f5600061108b565b565b60006001600160a01b0384166108415760405162461bcd60e51b815260206004820152600f60248201526e496e76616c6964206164647265737360881b6044820152606401610500565b60078054906000610851836119ff565b9091555050600754610863858261102c565b61086d8184611046565b6000818152600a602090815260408083208790556001600160a01b038881168085526009845282852080546001808201835591875285872001879055835160c081018552878152808601928352845180870186528781528186019081526060820183905242608083015260a082018b905288885260089096529390952083518155905194810180546001600160a01b031916959092169490941790559051909190600282019061091d9082611a6c565b50606082015160038201556080820151600482015560a082015160058201906109469082611a6c565b5050604080518181526000818301526001602082015290516001600160a01b038816925083917f3b6c69e97993b0d5b822b4d79ba5e10459e13005a530122a474abc189b9d7977919081900360600190a3949350505050565b6109e16040518060c001604052806000815260200160006001600160a01b03168152602001606081526020016000815260200160008152602001606081525090565b6109ea826110dd565b610a2d5760405162461bcd60e51b815260206004820152601460248201527310985919d948191bd95cc81b9bdd08195e1a5cdd60621b6044820152606401610500565b600082815260086020908152604091829020825160c0810184528154815260018201546001600160a01b0316928101929092526002810180549293919291840191610a77906119c5565b80601f0160208091040260200160405190810160405280929190818152602001828054610aa3906119c5565b8015610af05780601f10610ac557610100808354040283529160200191610af0565b820191906000526020600020905b815481529060010190602001808311610ad357829003601f168201915b505050505081526020016003820154815260200160048201548152602001600582018054610b1d906119c5565b80601f0160208091040260200160405190810160405280929190818152602001828054610b49906119c5565b8015610b965780601f10610b6b57610100808354040283529160200191610b96565b820191906000526020600020905b815481529060010190602001808311610b7957829003601f168201915b5050505050815250509050919050565b60606001805461041f906119c5565b60086020526000908152604090208054600182015460028301805492936001600160a01b0390921692610be7906119c5565b80601f0160208091040260200160405190810160405280929190818152602001828054610c13906119c5565b8015610c605780601f10610c3557610100808354040283529160200191610c60565b820191906000526020600020905b815481529060010190602001808311610c4357829003601f168201915b505050505090806003015490806004015490806005018054610c81906119c5565b80601f0160208091040260200160405190810160405280929190818152602001828054610cad906119c5565b8015610cfa5780601f10610ccf57610100808354040283529160200191610cfa565b820191906000526020600020905b815481529060010190602001808311610cdd57829003601f168201915b5050505050905086565b6001600160a01b038116600090815260096020908152604091829020805483518184028101840190945280845260609392830182828015610d6457602002820191906000526020600020905b815481526020019060010190808311610d50575b50505050509050919050565b6104d63383836110fa565b610d868484846104da565b6105643385858585611199565b60606000610da083610790565b6001600160a01b031603610ded5760405162461bcd60e51b8152602060048201526014602482015273151bdad95b88191bd95cc81b9bdd08195e1a5cdd60621b6044820152606401610500565b6000828152600b602052604090208054610e06906119c5565b80601f0160208091040260200160405190810160405280929190818152602001828054610e32906119c5565b8015610d645780601f10610e5457610100808354040283529160200191610d64565b820191906000526020600020905b815481529060010190602001808311610e625750939695505050505050565b6001600160a01b03918216600090815260056020908152604080832093909416825291909152205460ff1690565b610eb761105e565b6001600160a01b038116610ee157604051631e4fbdf760e01b815260006004820152602401610500565b610eea8161108b565b50565b6000818152600260205260408120546001600160a01b03168061040a57604051637e27328960e01b815260048101849052602401610500565b61058583838360016112c4565b6000828152600260205260408120546001600160a01b0390811690831615610f6057610f608184866113ca565b6001600160a01b03811615610f9e57610f7d6000856000806112c4565b6001600160a01b038116600090815260036020526040902080546000190190555b6001600160a01b03851615610fcd576001600160a01b0385166000908152600360205260409020805460010190555b60008481526002602052604080822080546001600160a01b0319166001600160a01b0389811691821790925591518793918516917fddf252ad1be2c89b69c2b068fc378daa952ba7f163c4a11628f55a4df523b3ef91a4949350505050565b6104d682826040518060200160405280600081525061142e565b6000828152600b602052604090206105858282611a6c565b6006546001600160a01b031633146107f55760405163118cdaa760e01b8152336004820152602401610500565b600680546001600160a01b038381166001600160a01b0319831681179093556040519116919082907f8be0079c531659141344cd1fd0a4f28419497f9722a3daafe3b4186f6b6457e090600090a35050565b6000806110e983610790565b6001600160a01b0316141592915050565b6001600160a01b03821661112c57604051630b61174360e31b81526001600160a01b0383166004820152602401610500565b6001600160a01b03838116600081815260056020908152604080832094871680845294825291829020805460ff191686151590811790915591519182527f17307eab39ab6107e8899845ad3d59bd9653f200f220920489ca2b5937696c31910160405180910390a3505050565b6001600160a01b0383163b156112bd57604051630a85bd0160e11b81526001600160a01b0384169063150b7a02906111db908890889087908790600401611b4e565b6020604051808303816000875af1925050508015611216575060408051601f3d908101601f1916820190925261121391810190611b8b565b60015b61127f573d808015611244576040519150601f19603f3d011682016040523d82523d6000602084013e611249565b606091505b50805160000361127757604051633250574960e11b81526001600160a01b0385166004820152602401610500565b805160208201fd5b6001600160e01b03198116630a85bd0160e11b146112bb57604051633250574960e11b81526001600160a01b0385166004820152602401610500565b505b5050505050565b80806112d857506001600160a01b03821615155b1561139a5760006112e884610eed565b90506001600160a01b038316158015906113145750826001600160a01b0316816001600160a01b031614155b801561132757506113258184610e81565b155b156113505760405163a9fbf51f60e01b81526001600160a01b0384166004820152602401610500565b81156113985783856001600160a01b0316826001600160a01b03167f8c5be1e5ebec7d5bd14f71427d1e84f3dd0314c0f7b2291e5b200ac8c7c3b92560405160405180910390a45b505b5050600090815260046020526040902080546001600160a01b0319166001600160a01b0392909216919091179055565b6113d5838383611446565b610585576001600160a01b03831661140357604051637e27328960e01b815260048101829052602401610500565b60405163177e802f60e01b81526001600160a01b038316600482015260248101829052604401610500565b61143883836114ac565b610585336000858585611199565b60006001600160a01b038316158015906114a45750826001600160a01b0316846001600160a01b0316148061148057506114808484610e81565b806114a457506000828152600460205260409020546001600160a01b038481169116145b949350505050565b6001600160a01b0382166114d657604051633250574960e11b815260006004820152602401610500565b60006114e483836000610f33565b90506001600160a01b03811615610585576040516339e3563760e11b815260006004820152602401610500565b60006020828403121561152357600080fd5b5035919050565b6001600160e01b031981168114610eea57600080fd5b60006020828403121561155257600080fd5b813561155d8161152a565b9392505050565b6000815180845260005b8181101561158a5760208185018101518683018201520161156e565b506000602082860101526020601f19601f83011685010191505092915050565b60208152600061155d6020830184611564565b80356001600160a01b03811681146115d457600080fd5b919050565b600080604083850312156115ec57600080fd5b6115f5836115bd565b946020939093013593505050565b60006020828403121561161557600080fd5b61155d826115bd565b60008060006060848603121561163357600080fd5b61163c846115bd565b925061164a602085016115bd565b9150604084013590509250925092565b634e487b7160e01b600052604160045260246000fd5b600067ffffffffffffffff8084111561168b5761168b61165a565b604051601f8501601f19908116603f011681019082821181831017156116b3576116b361165a565b816040528093508581528686860111156116cc57600080fd5b858560208301376000602087830101525050509392505050565b600082601f8301126116f757600080fd5b61155d83833560208501611670565b6000806000806080858703121561171c57600080fd5b611725856115bd565b9350602085013567ffffffffffffffff8082111561174257600080fd5b61174e888389016116e6565b945060408701359350606087013591508082111561176b57600080fd5b50611778878288016116e6565b91505092959194509250565b60008060006060848603121561179957600080fd5b6117a2846115bd565b925060208401359150604084013567ffffffffffffffff8111156117c557600080fd5b6117d1868287016116e6565b9150509250925092565b602081528151602082015260018060a01b0360208301511660408201526000604083015160c0606084015261181360e0840182611564565b905060608401516080840152608084015160a084015260a0840151601f198483030160c08501526118448282611564565b95945050505050565b8681526001600160a01b038616602082015260c06040820181905260009061187790830187611564565b85606084015284608084015282810360a08401526118958185611564565b9998505050505050505050565b6020808252825182820181905260009190848201906040850190845b818110156118da578351835292840192918401916001016118be565b50909695505050505050565b600080604083850312156118f957600080fd5b611902836115bd565b91506020830135801515811461191757600080fd5b809150509250929050565b6000806000806080858703121561193857600080fd5b611941856115bd565b935061194f602086016115bd565b925060408501359150606085013567ffffffffffffffff81111561197257600080fd5b8501601f8101871361198357600080fd5b61177887823560208401611670565b600080604083850312156119a557600080fd5b6119ae836115bd565b91506119bc602084016115bd565b90509250929050565b600181811c908216806119d957607f821691505b6020821081036119f957634e487b7160e01b600052602260045260246000fd5b50919050565b600060018201611a1f57634e487b7160e01b600052601160045260246000fd5b5060010190565b601f82111561058557600081815260208120601f850160051c81016020861015611a4d5750805b601f850160051c820191505b818110156112bb57828155600101611a59565b815167ffffffffffffffff811115611a8657611a8661165a565b611a9a81611a9484546119c5565b84611a26565b602080601f831160018114611acf5760008415611ab75750858301515b600019600386901b1c1916600185901b1785556112bb565b600085815260208120601f198616915b82811015611afe57888601518255948401946001909101908401611adf565b5085821015611b1c5787850151600019600388901b60f8161c191681555b5050505050600190811b01905550565b604081526000611b3f6040830185611564565b90508260208301529392505050565b6001600160a01b0385811682528416602082015260408101839052608060608201819052600090611b8190830184611564565b9695505050505050565b600060208284031215611b9d57600080fd5b815161155d8161152a56fea26469706673582212209a882470adb21f0b93b6e5ade4d29d1ee196ae7eb465e80e826a37906c4efcde64736f6c63430008140033",
  "linkReferences": {},
  "deployedLinkReferences": {}
}